{
  "contractName": "Auction",
  "abi": [
    {
      "inputs": [],
      "stateMutability": "nonpayable",
      "type": "constructor"
    },
    {
      "anonymous": false,
      "inputs": [
        {
          "indexed": false,
          "internalType": "address",
          "name": "_from",
          "type": "address"
        },
        {
          "indexed": false,
          "internalType": "uint256",
          "name": "_productId",
          "type": "uint256"
        },
        {
          "indexed": false,
          "internalType": "uint256",
          "name": "_newPrice",
          "type": "uint256"
        }
      ],
      "name": "NewBid",
      "type": "event"
    },
    {
      "anonymous": false,
      "inputs": [
        {
          "components": [
            {
              "internalType": "string",
              "name": "name",
              "type": "string"
            },
            {
              "internalType": "string",
              "name": "description",
              "type": "string"
            },
            {
              "internalType": "string",
              "name": "imageLink",
              "type": "string"
            },
            {
              "internalType": "uint256",
              "name": "id",
              "type": "uint256"
            },
            {
              "internalType": "uint256",
              "name": "price",
              "type": "uint256"
            },
            {
              "internalType": "uint256",
              "name": "expireTime",
              "type": "uint256"
            },
            {
              "internalType": "bool",
              "name": "isSold",
              "type": "bool"
            }
          ],
          "indexed": false,
          "internalType": "struct Auction.Product",
          "name": "product",
          "type": "tuple"
        }
      ],
      "name": "ProductCreated",
      "type": "event"
    },
    {
      "anonymous": false,
      "inputs": [
        {
          "indexed": false,
          "internalType": "address",
          "name": "_owner",
          "type": "address"
        },
        {
          "indexed": false,
          "internalType": "uint256",
          "name": "_productId",
          "type": "uint256"
        }
      ],
      "name": "ProductSold",
      "type": "event"
    },
    {
      "inputs": [],
      "name": "owner",
      "outputs": [
        {
          "internalType": "address",
          "name": "",
          "type": "address"
        }
      ],
      "stateMutability": "view",
      "type": "function"
    },
    {
      "inputs": [
        {
          "internalType": "uint256",
          "name": "",
          "type": "uint256"
        }
      ],
      "name": "productIdToOwner",
      "outputs": [
        {
          "internalType": "address",
          "name": "",
          "type": "address"
        }
      ],
      "stateMutability": "view",
      "type": "function"
    },
    {
      "inputs": [
        {
          "internalType": "string",
          "name": "_name",
          "type": "string"
        },
        {
          "internalType": "string",
          "name": "_imageLink",
          "type": "string"
        },
        {
          "internalType": "string",
          "name": "_description",
          "type": "string"
        },
        {
          "internalType": "uint256",
          "name": "_floorPrice",
          "type": "uint256"
        },
        {
          "internalType": "uint32",
          "name": "_auctionDuration",
          "type": "uint32"
        }
      ],
      "name": "addProduct",
      "outputs": [],
      "stateMutability": "nonpayable",
      "type": "function"
    },
    {
      "inputs": [
        {
          "internalType": "uint256",
          "name": "_productId",
          "type": "uint256"
        }
      ],
      "name": "bid",
      "outputs": [],
      "stateMutability": "payable",
      "type": "function"
    },
    {
      "inputs": [
        {
          "internalType": "uint256",
          "name": "_productId",
          "type": "uint256"
        }
      ],
      "name": "claimProduct",
      "outputs": [],
      "stateMutability": "nonpayable",
      "type": "function"
    },
    {
      "inputs": [
        {
          "internalType": "uint256",
          "name": "_productId",
          "type": "uint256"
        }
      ],
      "name": "getProductOwner",
      "outputs": [
        {
          "internalType": "address",
          "name": "",
          "type": "address"
        }
      ],
      "stateMutability": "view",
      "type": "function"
    },
    {
      "inputs": [],
      "name": "getProducts",
      "outputs": [
        {
          "components": [
            {
              "internalType": "string",
              "name": "name",
              "type": "string"
            },
            {
              "internalType": "string",
              "name": "description",
              "type": "string"
            },
            {
              "internalType": "string",
              "name": "imageLink",
              "type": "string"
            },
            {
              "internalType": "uint256",
              "name": "id",
              "type": "uint256"
            },
            {
              "internalType": "uint256",
              "name": "price",
              "type": "uint256"
            },
            {
              "internalType": "uint256",
              "name": "expireTime",
              "type": "uint256"
            },
            {
              "internalType": "bool",
              "name": "isSold",
              "type": "bool"
            }
          ],
          "internalType": "struct Auction.Product[]",
          "name": "",
          "type": "tuple[]"
        }
      ],
      "stateMutability": "view",
      "type": "function"
    },
    {
      "inputs": [
        {
          "internalType": "uint256",
          "name": "_productId",
          "type": "uint256"
        }
      ],
      "name": "getProduct",
      "outputs": [
        {
          "components": [
            {
              "internalType": "string",
              "name": "name",
              "type": "string"
            },
            {
              "internalType": "string",
              "name": "description",
              "type": "string"
            },
            {
              "internalType": "string",
              "name": "imageLink",
              "type": "string"
            },
            {
              "internalType": "uint256",
              "name": "id",
              "type": "uint256"
            },
            {
              "internalType": "uint256",
              "name": "price",
              "type": "uint256"
            },
            {
              "internalType": "uint256",
              "name": "expireTime",
              "type": "uint256"
            },
            {
              "internalType": "bool",
              "name": "isSold",
              "type": "bool"
            }
          ],
          "internalType": "struct Auction.Product",
          "name": "",
          "type": "tuple"
        }
      ],
      "stateMutability": "view",
      "type": "function"
    }
  ],
  "bytecode": "0x6080604052600060035534801561001557600080fd5b50336000806101000a81548173ffffffffffffffffffffffffffffffffffffffff021916908373ffffffffffffffffffffffffffffffffffffffff1602179055506114a2806100656000396000f3fe60806040526004361061007b5760003560e01c8063b9db15b41161004e578063b9db15b41461012d578063bb1ab0f51461016a578063c29b2f2014610193578063fe542c9b146101be5761007b565b80631ebe9ab71461008057806328b5ad4b146100a9578063454a2ab3146100e65780638da5cb5b14610102575b600080fd5b34801561008c57600080fd5b506100a760048036038101906100a29190610db0565b6101fb565b005b3480156100b557600080fd5b506100d060048036038101906100cb9190610e8c565b610499565b6040516100dd9190610efa565b60405180910390f35b61010060048036038101906100fb9190610e8c565b6104cc565b005b34801561010e57600080fd5b506101176105b9565b6040516101249190610efa565b60405180910390f35b34801561013957600080fd5b50610154600480360381019061014f9190610e8c565b6105dd565b6040516101619190611082565b60405180910390f35b34801561017657600080fd5b50610191600480360381019061018c9190610e8c565b6107f9565b005b34801561019f57600080fd5b506101a8610901565b6040516101b59190611210565b60405180910390f35b3480156101ca57600080fd5b506101e560048036038101906101e09190610e8c565b610bb0565b6040516101f29190610efa565b60405180910390f35b60008054906101000a900473ffffffffffffffffffffffffffffffffffffffff1673ffffffffffffffffffffffffffffffffffffffff163373ffffffffffffffffffffffffffffffffffffffff161461025357600080fd5b60008163ffffffff161161026657600080fd5b6000603c826102759190611261565b63ffffffff1642610286919061129f565b905060006040518060e001604052808b8b8080601f016020809104026020016040519081016040528093929190818152602001838380828437600081840152601f19601f82011690508083019250505050505050815260200187878080601f016020809104026020016040519081016040528093929190818152602001838380828437600081840152601f19601f82011690508083019250505050505050815260200189898080601f016020809104026020016040519081016040528093929190818152602001838380828437600081840152601f19601f82011690508083019250505050505050815260200160035481526020018581526020018381526020016000151581525090508060026000600354815260200190815260200160002060008201518160000190805190602001906103c2929190610bed565b5060208201518160010190805190602001906103df929190610bed565b5060408201518160020190805190602001906103fc929190610bed565b50606082015181600301556080820151816004015560a0820151816005015560c08201518160060160006101000a81548160ff02191690831515021790555090505060036000815480929190610451906112f5565b91905055507fa35ffc6a44669254e296e4217a7b6815f3b2e7eab9a75ed974273734d2033465816040516104859190611082565b60405180910390a150505050505050505050565b60016020528060005260406000206000915054906101000a900473ffffffffffffffffffffffffffffffffffffffff1681565b6000600260008381526020019081526020016000209050806005015442106104f357600080fd5b8060060160009054906101000a900460ff161561050f57600080fd5b8060040154341161051f57600080fd5b348160040181905550336001600084815260200190815260200160002060006101000a81548173ffffffffffffffffffffffffffffffffffffffff021916908373ffffffffffffffffffffffffffffffffffffffff1602179055507f87f5b2fe112bf269d30fb8ca9dc0bde0afd0cc39258e13fafd75fe794795bf0e3383346040516105ad9392919061134d565b60405180910390a15050565b60008054906101000a900473ffffffffffffffffffffffffffffffffffffffff1681565b6105e5610c73565b600260008381526020019081526020016000206040518060e0016040529081600082018054610613906113b3565b80601f016020809104026020016040519081016040528092919081815260200182805461063f906113b3565b801561068c5780601f106106615761010080835404028352916020019161068c565b820191906000526020600020905b81548152906001019060200180831161066f57829003601f168201915b505050505081526020016001820180546106a5906113b3565b80601f01602080910402602001604051908101604052809291908181526020018280546106d1906113b3565b801561071e5780601f106106f35761010080835404028352916020019161071e565b820191906000526020600020905b81548152906001019060200180831161070157829003601f168201915b50505050508152602001600282018054610737906113b3565b80601f0160208091040260200160405190810160405280929190818152602001828054610763906113b3565b80156107b05780601f10610785576101008083540402835291602001916107b0565b820191906000526020600020905b81548152906001019060200180831161079357829003601f168201915b505050505081526020016003820154815260200160048201548152602001600582015481526020016006820160009054906101000a900460ff1615151515815250509050919050565b60006002600083815260200190815260200160002090508060050154421161082057600080fd5b8060060160009054906101000a900460ff161561083c57600080fd5b6001600083815260200190815260200160002060009054906101000a900473ffffffffffffffffffffffffffffffffffffffff1673ffffffffffffffffffffffffffffffffffffffff163373ffffffffffffffffffffffffffffffffffffffff16146108a757600080fd5b60018160060160006101000a81548160ff0219169083151502179055507f735ccf73d81a69b66f62bb12f457649d7d07e4980209201e2319aabd61adf0ee33836040516108f59291906113e5565b60405180910390a15050565b6060600060035467ffffffffffffffff8111156109215761092061140e565b5b60405190808252806020026020018201604052801561095a57816020015b610947610c73565b81526020019060019003908161093f5790505b50905060005b600354811015610ba857600260008281526020019081526020016000206040518060e0016040529081600082018054610998906113b3565b80601f01602080910402602001604051908101604052809291908181526020018280546109c4906113b3565b8015610a115780601f106109e657610100808354040283529160200191610a11565b820191906000526020600020905b8154815290600101906020018083116109f457829003601f168201915b50505050508152602001600182018054610a2a906113b3565b80601f0160208091040260200160405190810160405280929190818152602001828054610a56906113b3565b8015610aa35780601f10610a7857610100808354040283529160200191610aa3565b820191906000526020600020905b815481529060010190602001808311610a8657829003601f168201915b50505050508152602001600282018054610abc906113b3565b80601f0160208091040260200160405190810160405280929190818152602001828054610ae8906113b3565b8015610b355780601f10610b0a57610100808354040283529160200191610b35565b820191906000526020600020905b815481529060010190602001808311610b1857829003601f168201915b505050505081526020016003820154815260200160048201548152602001600582015481526020016006820160009054906101000a900460ff161515151581525050828281518110610b8a57610b8961143d565b5b60200260200101819052508080610ba0906112f5565b915050610960565b508091505090565b60006001600083815260200190815260200160002060009054906101000a900473ffffffffffffffffffffffffffffffffffffffff169050919050565b828054610bf9906113b3565b90600052602060002090601f016020900481019282610c1b5760008555610c62565b82601f10610c3457805160ff1916838001178555610c62565b82800160010185558215610c62579182015b82811115610c61578251825591602001919060010190610c46565b5b509050610c6f9190610cb2565b5090565b6040518060e001604052806060815260200160608152602001606081526020016000815260200160008152602001600081526020016000151581525090565b5b80821115610ccb576000816000905550600101610cb3565b5090565b600080fd5b600080fd5b600080fd5b600080fd5b600080fd5b60008083601f840112610cfe57610cfd610cd9565b5b8235905067ffffffffffffffff811115610d1b57610d1a610cde565b5b602083019150836001820283011115610d3757610d36610ce3565b5b9250929050565b6000819050919050565b610d5181610d3e565b8114610d5c57600080fd5b50565b600081359050610d6e81610d48565b92915050565b600063ffffffff82169050919050565b610d8d81610d74565b8114610d9857600080fd5b50565b600081359050610daa81610d84565b92915050565b60008060008060008060008060a0898b031215610dd057610dcf610ccf565b5b600089013567ffffffffffffffff811115610dee57610ded610cd4565b5b610dfa8b828c01610ce8565b9850985050602089013567ffffffffffffffff811115610e1d57610e1c610cd4565b5b610e298b828c01610ce8565b9650965050604089013567ffffffffffffffff811115610e4c57610e4b610cd4565b5b610e588b828c01610ce8565b94509450506060610e6b8b828c01610d5f565b9250506080610e7c8b828c01610d9b565b9150509295985092959890939650565b600060208284031215610ea257610ea1610ccf565b5b6000610eb084828501610d5f565b91505092915050565b600073ffffffffffffffffffffffffffffffffffffffff82169050919050565b6000610ee482610eb9565b9050919050565b610ef481610ed9565b82525050565b6000602082019050610f0f6000830184610eeb565b92915050565b600081519050919050565b600082825260208201905092915050565b60005b83811015610f4f578082015181840152602081019050610f34565b83811115610f5e576000848401525b50505050565b6000601f19601f8301169050919050565b6000610f8082610f15565b610f8a8185610f20565b9350610f9a818560208601610f31565b610fa381610f64565b840191505092915050565b610fb781610d3e565b82525050565b60008115159050919050565b610fd281610fbd565b82525050565b600060e0830160008301518482036000860152610ff58282610f75565b9150506020830151848203602086015261100f8282610f75565b915050604083015184820360408601526110298282610f75565b915050606083015161103e6060860182610fae565b5060808301516110516080860182610fae565b5060a083015161106460a0860182610fae565b5060c083015161107760c0860182610fc9565b508091505092915050565b6000602082019050818103600083015261109c8184610fd8565b905092915050565b600081519050919050565b600082825260208201905092915050565b6000819050602082019050919050565b600060e08301600083015184820360008601526110ed8282610f75565b915050602083015184820360208601526111078282610f75565b915050604083015184820360408601526111218282610f75565b91505060608301516111366060860182610fae565b5060808301516111496080860182610fae565b5060a083015161115c60a0860182610fae565b5060c083015161116f60c0860182610fc9565b508091505092915050565b600061118683836110d0565b905092915050565b6000602082019050919050565b60006111a6826110a4565b6111b081856110af565b9350836020820285016111c2856110c0565b8060005b858110156111fe57848403895281516111df858261117a565b94506111ea8361118e565b925060208a019950506001810190506111c6565b50829750879550505050505092915050565b6000602082019050818103600083015261122a818461119b565b905092915050565b7f4e487b7100000000000000000000000000000000000000000000000000000000600052601160045260246000fd5b600061126c82610d74565b915061127783610d74565b92508163ffffffff048311821515161561129457611293611232565b5b828202905092915050565b60006112aa82610d3e565b91506112b583610d3e565b9250827fffffffffffffffffffffffffffffffffffffffffffffffffffffffffffffffff038211156112ea576112e9611232565b5b828201905092915050565b600061130082610d3e565b91507fffffffffffffffffffffffffffffffffffffffffffffffffffffffffffffffff82141561133357611332611232565b5b600182019050919050565b61134781610d3e565b82525050565b60006060820190506113626000830186610eeb565b61136f602083018561133e565b61137c604083018461133e565b949350505050565b7f4e487b7100000000000000000000000000000000000000000000000000000000600052602260045260246000fd5b600060028204905060018216806113cb57607f821691505b602082108114156113df576113de611384565b5b50919050565b60006040820190506113fa6000830185610eeb565b611407602083018461133e565b9392505050565b7f4e487b7100000000000000000000000000000000000000000000000000000000600052604160045260246000fd5b7f4e487b7100000000000000000000000000000000000000000000000000000000600052603260045260246000fdfea264697066735822122037e880912175e31a2c2e5a4ae9181fa4798cfa7773fd2dbebb2d6281a09e560264736f6c63430008090033",
  "immutableReferences": {},
  "source": "// SPDX-License-Identifier: MIT\r\npragma solidity >=0.4.22 <0.9.0;\r\n\r\ncontract Auction {\r\n    address public owner;\r\n\r\n    mapping(uint256 => address) public productIdToOwner;\r\n\r\n    mapping(uint256 => Product) products;\r\n    uint256 totalProductCount = 0;\r\n\r\n    struct Product {\r\n        string name;\r\n        string description;\r\n        string imageLink;\r\n        uint256 id;\r\n        uint256 price;\r\n        uint256 expireTime;\r\n        bool isSold;\r\n    }\r\n\r\n    event ProductCreated(Product product);\r\n    event ProductSold(address _owner, uint256 _productId);\r\n    event NewBid(address _from, uint256 _productId, uint256 _newPrice);\r\n\r\n    constructor() {\r\n        owner = msg.sender;\r\n    }\r\n\r\n    /***\r\n    /// @notice Explain to an end user what this does\r\n    /// @dev Explain to a developer any extra details\r\n    /// @param _auctionDuration auction duration for the product (in seconds)\r\n    /// @return Documents the return variables of a contracts function state variable\r\n    /// @inheritdoc\tCopies all missing tags from the base function (must be followed by the contract name)\r\n */\r\n    function addProduct(\r\n        string calldata _name,\r\n        string calldata _imageLink,\r\n        string calldata _description,\r\n        uint256 _floorPrice,\r\n        uint32 _auctionDuration\r\n    ) public onlyOwner {\r\n        require(_auctionDuration > 0); // auctionDuration must be at least 5 seconds\r\n        uint256 expireTime = block.timestamp + _auctionDuration * 60;\r\n        Product memory newProduct = Product(\r\n            _name,\r\n            _description,\r\n            _imageLink,\r\n            totalProductCount,\r\n            _floorPrice,\r\n            expireTime,\r\n            false\r\n        );\r\n\r\n        products[totalProductCount] = newProduct;\r\n        totalProductCount++;\r\n\r\n        emit ProductCreated(newProduct);\r\n    }\r\n\r\n    function bid(uint256 _productId) external payable {\r\n        Product storage product = products[_productId];\r\n\r\n        require(block.timestamp < product.expireTime);\r\n        require(!product.isSold);\r\n        require(msg.value > product.price);\r\n\r\n        product.price = msg.value;\r\n        productIdToOwner[_productId] = msg.sender;\r\n        emit NewBid(msg.sender, _productId, msg.value);\r\n    }\r\n\r\n    function claimProduct(uint256 _productId) external {\r\n        Product storage product = products[_productId];\r\n        require(block.timestamp > product.expireTime); // Check if the auction is finished\r\n        require(!product.isSold); // Make sure that the product is not sold before\r\n        require(msg.sender == productIdToOwner[_productId]); // Check if the product owner is the function caller\r\n        product.isSold = true;\r\n\r\n        emit ProductSold(msg.sender, _productId);\r\n    }\r\n\r\n    function getProductOwner(uint256 _productId)\r\n        external\r\n        view\r\n        returns (address)\r\n    {\r\n        return productIdToOwner[_productId];\r\n    }\r\n\r\n    function getProducts() external view returns (Product[] memory) {\r\n        Product[] memory result = new Product[](totalProductCount);\r\n        for (uint256 i = 0; i < totalProductCount; i++) {\r\n            result[i] = products[i];\r\n        }\r\n        return result;\r\n    }\r\n\r\n    function getProduct(uint256 _productId)\r\n        external\r\n        view\r\n        returns (Product memory)\r\n    {\r\n        return products[_productId];\r\n    }\r\n\r\n    modifier onlyOwner() {\r\n        require(msg.sender == owner);\r\n        _;\r\n    }\r\n}\r\n",
  "sourcePath": "C:\\Users\\Sercan\\code\\auction-dapp\\contracts\\Auction.sol",
  "compiler": {
    "name": "solc",
    "version": "0.8.9+commit.e5eed63a.Emscripten.clang"
  },
  "schemaVersion": "3.4.3",
  "updatedAt": "2021-12-20T00:38:04.749Z",
  "devdoc": {
    "kind": "dev",
    "methods": {},
    "version": 1
  },
  "userdoc": {
    "kind": "user",
    "methods": {},
    "version": 1
  }
}